:020000040000FA
:100000001728000000000000F0000308F1000B19A1
:100010000A2812280B1125149F149F180D281E0959
:100020008100122871088300F00E700E09008316FB
:10003000FF308500870110309F00873081008312D8
:10004000031701309E008312031301309F00083014
:10005000A200A301A401A0308B00251C3C28251080
:10006000220887000310231C3928A20C0318A215AC
:100070003C28A20D221A2214241844288519462847
:100080002414FF30A3064628851924100D3049207A
:0E0090002D28A100A00B4A28A10B4A28080029
:02400E00D430AC
:00000001FF
