:10000000783084000730F000FC30F10011208000CF
:10001000840A04087C3A03191528F10A0319F00A26
:10002000062870088A007108820083177C308400DB
:100030007E308A111E208A118A11262864008001D0
:10004000840A04060319003404061F280310003034
:1000500003180130A00000010F3883120313A2001F
:100060002208A10003108316031300300318013087
:1000700087000001043883120313A20083160313C0
:10008000831203132208831603138500000102382C
:1000900083120313A200831603138312031322088F
:1000A000831603138100FF308A119B278A11831264
:1000B0000313A2002208A0006D285E2883120313F8
:1000C0000B1D632864285E28031003186A286C2817
:1000D000831203130B156D280B11831203130130C8
:1000E000A002031D742875285D2883120313851D43
:1000F0007A287B2893280001013883120313A20079
:10010000FF308A119B278A110339013E8B28031087
:1001100083120313A20DFF3E031D87282208A300AC
:100120002308A106A328FF308A119B278A11831276
:100130000313A2002208A10000010F388312031349
:10014000A2002208A1058312031321088313A20031
:0A0150002208870053288A110028B6
:100DC400AC000310003003180130AD00831203138C
:100DD4002C1CED2EEE2EF52E831203132B088313F9
:100DE400AE002E08AD07831203130310AB0D83125C
:100DF40003130310AC0CAC08031D012F022FE82EC3
:100E0400831203132D088313072F08000030AF004B
:100E14000030B000831203132B1C112F122F1A2F32
:100E2400831203132D08AF070318B00A2E08B00766
:100E34008312031301300310AD0DAE0DFF3E031DED
:100E44001D2F8312031301300310AC0CAB0CFF3EB7
:100E5400031D262F831203132C082B04031D332F89
:100E6400342F0C2F831203132F08AB01AB07300868
:100E7400AC01AC073D2F08000030B0000030B100D9
:100E84002E082D040319472F482F912F8312031383
:100E9400AF010314AF0D5E2F83120313013003104F
:100EA400AD0DAE0DFF3E031D512F0001013883121D
:100EB4000313B2003208AF0783120313AE1F632F6C
:100EC400642F4E2F8312031301300310B00DB10DA4
:100ED400FF3E031D672F2E082C02031D732F2D08C0
:100EE4002B02031C762F772F822F831203132D08D6
:100EF400AB022E08031CAC03AC02831203133014A0
:100F04008312031301300310AE0CAD0CFF3E031D1E
:100F1400852F0130AF02031D902F912F642F831270
:100F240003133008AB01AB073108AC01AC079A2FAF
:100F3400080083120313A40000010138A700270846
:100F4400FD070330A7002708FD05831203137C085F
:100F5400A700A8014130AD000230AE007D08783E04
:100F640084000008A900AA012908AB002A08AC00E3
:100F74008A1108278A118312031327082B07A50057
:100F840028080318280A2C07A60083120313240830
:100F94008313A700A8012708AD002808AE00250880
:100FA400AB01AB072608AC01AC078A113E278A11B6
:100FB400831203132B08A9002908FC0083120313CE
:100FC40024088313A7002708AB007C088A11E226B3
:100FD4008A11831203132502A8007D08783E840039
:100FE40028088000831203137D08783E84000008DB
:0C0FF400FB2F08003234C8340034AE3447
:02400E00C43CB0
:00000001FF
