:10000000830100308A0015288C0003088301C80092
:1000100083128B1C102801089200810147148B1059
:10002000480883008C0E0C0E0900453084004530D2
:100030002A200D30840037302A200330C600F730E4
:10004000C5003730840040302E208301892A040601
:100050008001840A0406031D27280034C0003820CC
:100060008000840A04084006031D2F280034C500C0
:10007000C61B412846088A004508C50A0319C60A56
:1000800082008313461883174508C50A84000008B8
:02009000080066
:10011C00B5000138B600B60B912883120800831283
:10012C000514831605108514C714831208000130BA
:10013C008312890083160814831208088F000800A4
:10014C00831606118614323083128E208316061500
:10015C0083120800AF007B302F020318B9286130DE
:10016C002F020318AF122F0883120800C0000030B2
:10017C00411840070310C00D0310C10CC108031D2A
:10018C00BE28080083120611831606111430831240
:10019C008E20D52083160615143083128E28143029
:1001AC0083128E2083168614643083128E2083165D
:1001BC008610643083128E28AD00AE01FA308312A3
:1001CC00EF20AE0A04302E02031CE428AD0BE3280A
:1001DC000800AD0064000430AE00FB30AF00AF0B84
:1001EC00F528AE0BF328AD0BF02883120800AF00F6
:1001FC0005292F088400000883127721AF0A2F08E5
:10020C0084008008031DFF2883120800831606153E
:10021C00861483128610061132308E208316061136
:10022C008312061132308E208316861064308312AE
:10023C008E28B30183120611861064308E2008308C
:10024C00B2000310B30D8316061583124921003832
:10025C00031DB30AB20B2729330808000D30831293
:10026C0077210A3077219D203730FD202D307721E2
:10027C003B221D30FD202D3077210F08B6220D308A
:10028C0077210A307729B401143083128E2083161B
:10029C008614323083128E20061D5629B401B40AFE
:1002AC0032308E2083168610643083128E203408F0
:1002BC000800831206118610831686100615861404
:1002CC00323083128E20061D6D290030080032302A
:1002DC008E2083168610643083128E2064308E201C
:1002EC000134B30064000B30B2008312C71C95209C
:1002FC00831205100C30B2004130B100B10B8429CF
:10030C00831233180514331C05100314B30CB20BF1
:10031C00822983120800B200831206118610643001
:10032C008E200830B300B21B9F29061183160611CC
:10033C00A129831606150310B20D8312D520B30B19
:10034C00992983160615013083120800B100831217
:10035C000C213108013891215F210038031DC2297D
:10036C00A62000341F21C0002F0884004008800004
:10037C00AF0AB008031DC820B003300FB829A6205F
:10038C000134B10083120C213108FE3991215F2117
:10039C000038031DDE29A62000342F088400000835
:1003AC0091215F210038031DDD29A6200034AF0AFE
:1003BC00B003300FD329A6200134AF000F398F00C2
:1003CC000A30C1002F0E0F39BC20AF008F078316E7
:1003DC008818EE290130831289000F0888008B13CE
:1003EC008316081555308900AA3089008814081125
:0403FC008312080060
:100400008312C71C95208312851C082A6400042AC5
:100410002230B300B30B0A2A8518032A0830B10032
:10042000B2014130B300B30B132A03108518031433
:10043000B20CB10B112A3208080095018312960103
:10044000970113089800100899000E087F399A0048
:100450001408C0000630C1000310C00DC10B2C2AC7
:1004600040080D049B0011089C001530AF000830B7
:10047000B000A030C72995011530AF00B001B00A17
:10048000A0308312C7211530AF000730B000A03074
:10049000AC21170893001808900019083F398E0006
:1004A0001A08C0000630C1000310C00CC10B542A4A
:1004B000400894001A083F398D001B081F3991002D
:1004C000392BAF0183120022B00077213030300287
:1004D000031C762A3A3030020318762A3008D03EC0
:1004E000AF00AF0EF030AF05F030AF050022B00026
:1004F000772130303002031C872A3A30300203184B
:10050000872AD030B0070F30B0053008AF042F086D
:1005100008007F3083168100FF308500860064006C
:1005200064308312EF2095200C21A6203421051D74
:10053000E6228B010B168B1764004710471C9E2A7E
:1005400047146400471CA22A47100F081202031820
:10055000A12A83123B221D30FD202C307721120866
:10056000B6220D3077210A307721A12AAF006530FD
:100570002F02031CCA2A6430C1002F08C723B00011
:10058000303E831277216430C1003008BC20B000B7
:10059000AF02CD2A3030831277210B302F02031C9B
:1005A000E12A0A30C1002F08C723B000303E77216E
:1005B0000310300DB007B0070310B00D3008AF02C4
:1005C000E32A303077212F08303E7729AD015330B0
:1005D00083127721453077215430772155307721A8
:1005E000503077213A307721352B0022B020AE00F1
:1005F00077211A2B61228E00352B61229000352B3A
:1006000061229300352B6122AE00E321352B61225C
:100610008D003F308D05352B612291001F309105F3
:10062000352B6122940003309405352B1D22AD013A
:10063000AD0A352B2E08443A0319072B013A03194A
:10064000162B0D3A0319FA2A043A0319032B013A1F
:100650000319FD2A033A03190C2B1D3A0319002B29
:100660000A3A0319112B78307721AD080319F52ABE
:100670003429AF011108F039B000B00E0F30B005C9
:100680002F081D3E84003008303E8000AF0A11085C
:100690000F39B0002F081D3E84003008303E800026
:1006A000AF0A0D08F039B000B00E0F30B0052F08BA
:1006B0001D3E84003008303E8000AF0A0D080F391F
:1006C000B0002F081D3E84003008303E8000AF0A85
:1006D0002F081D3E84002C308000AF0A0E08F03930
:1006E000B000B00E0F30B0052F081D3E840030085A
:1006F000303E8000AF0A0E080F39B0002F081D3EB3
:1007000084003008303E8000AF0A2F081D3E840070
:100710003A308000AF0A1008F039B000B00E0F3048
:10072000B0052F081D3E84003008303E8000AF0A1F
:1007300010080F39B0002F081D3E84003008303EED
:100740008000AF0A2F081D3E84003A308000AF0AB7
:100750001308F039B000B00E0F30B0052F081D3E61
:1007600084003008303E8000AF0A13080F39B00013
:100770002F081D3E84003008303E8000AF0A2F084D
:100780001D3E84008001AF0A8312AC010800C00046
:10079000C4010310FD304107031CEE2BC301F030F0
:1007A0004105031DD62B0430C300C10EC201031046
:1007B000C30AC10D031CD82BC10C41084002031809
:1007C000C000C20DC30BDC2BC41FE82BC209C20A38
:1007D0004208C41F0800C009C00A0800C001C10CBB
:1007E000C10C0318C00C4008C200C00DE42B5634E5
:1007F00030342E3430342E34393400340034003464
:00000001FF
