:10000000830100308A0015288C0003088301BE009C
:1000100083128B1C10280108900081013B148B1067
:100020003E0883008C0E0C0E09003B3084003B30F0
:100030002A200D3084002D302A200330BD00F730F7
:10004000BC002D30840036302E208301FE2A0406A9
:100050008001840A0406031D27280034B6003820D6
:100060008000840A04083606031D2F280034BC00D3
:10007000BD1B41283D088A003C08BC0A0319BD0A83
:10008000820083133D1883173C08BC0A84000008D3
:02009000080066
:10025A00AB000138AC00AC0B3029831208008312C2
:10026A000514831605108514BB1483120800013087
:10027A008312890083160814831208088E00080066
:10028A00831606118614323083122D218316061521
:10029A0083120800B6000030371836070310B60D6F
:1002AA000310B70CB708031D512908008312061161
:1002BA0083160611143083122D2168218316061520
:1002CA00143083122D29143083122D21831686149B
:1002DA00643083122D2183168610643083122D29EF
:1002EA00A300A401FA3083128221A40A0430240252
:1002FA00031C7729A30B76290800A30064000430A5
:10030A00A400FB30A500A50B8829A40B8629A30B02
:10031A00832983120800A50098292508840000086B
:10032A0083123022A50A250884008008031D922919
:10033A0083120800920193019401110895000F0895
:10034A0096000D08803897001230A5000630A600E6
:10035A00A030802A83160615861483128610061189
:10036A0032302D21831606118312061132302D21C7
:10037A0083168610643083122D290D3083123022A1
:10038A000A3030223C212D3090212D303022EC21B0
:10039A00183090212D3030220E082B230D303022B8
:1003AA000A30302AA90183120611861064302D21E1
:1003BA000830A8000310A90D83160615831202221D
:1003CA000038031DA90AA80BDF2929080800920191
:1003DA001230A500A601A60AA0308312802212308C
:1003EA00A5000530A600A030652214089100150862
:0603FA008F0016083F39D8
:100400008D005B2BAA01143083122D2183168614D4
:10041000323083122D21061D0F2AAA01AA0A32307A
:100420002D2183168610643083122D212A0808009E
:100430008312061186108316861006158614323034
:1004400083122D21061D262A0030080032302D216E
:1004500083168610643083122D2164302D210134DF
:10046000A90064000B30A8008312BB1C3421831246
:1004700005100C30A8004130A700A70B3D2A8312BD
:1004800029180514291C05100314A90CA80B3B2AD4
:1004900083120800A80083120611861064302D21F3
:1004A0000830A900A81B582A0611831606115A2ADB
:1004B000831606150310A80D83126821A90B522A72
:1004C00083160615013083120800A7008312AF219E
:1004D000270801384A2218220038031D7B2A4521AB
:1004E0000034D721B6002508840036088000A50A0C
:1004F000A608031D5B21A603260F712A452101349E
:10050000A7008312AF212708FE394A22182200389B
:10051000031D972A452100342508840000084A223B
:1005200018220038031D962A45210034A50AA60387
:10053000260F8C2A452101348312BB1C34218312DF
:10054000851CA42A6400A02A2230A900A90BA62A8F
:1005500085189F2A0830A700A8014130A900A90BDF
:10056000AF2A031085180314A80CA70BAD2A28087E
:100570000800A5000F398E000A30B700250E0F398C
:100580004F21A5008E0783168818C42A01308312D4
:1005900089000E0888008B138316081555308900D2
:1005A000AA3089008814081183120800A50183125B
:1005B0009C22A600302230302602031CEB2A3A305F
:1005C00026020318EB2A2608D03EA500A50EF0301F
:1005D000A505F030A5059C22A60030223030260269
:1005E000031CFC2A3A3026020318FC2AD030A60746
:1005F0000F30A6052608A504250808007F308316BD
:100600008100FF30850086006400643083128221FF
:100610003421AF214521C221051D8D238B010B16ED
:100620008B1764003B103B1C132B3B1464003B1CDA
:10063000172B3B100E0810020318162B8312EC2107
:10064000183090212C30302210082B230D3030220E
:100650000A303022162BA50065302502031C3F2BE3
:100660006430B7002508C723A600303E831230222D
:100670006430B70026084F21A600A502422B303077
:10068000831230220B302502031C562B0A30B70090
:100690002508C723A600303E30220310260DA607EA
:1006A000A6070310A60D2608A502582B30303022CD
:1006B0002508303E302A0D08F039A500A50E0F3070
:1006C000A5052508303E98000D080F39A500303EDD
:1006D000831299003A309A000F08F039A500A50E50
:1006E0000F30A5052508303E9B000F080F39A500E7
:1006F000303E9C003A309D001108F039A500A50E4F
:100700000F30A5052508303E9E0011080F39A500C1
:10071000303E9F00A001A1010800A30153308312C5
:100720003022453030225430302255303022503083
:1007300030223A303022C32B9C22A4003022B12B2D
:10074000D6228D00C32BD6228F00C32BD622910038
:10075000C32BD622A400B922C32B9F21A301A30A35
:10076000C32B2408453A0319AD2B0D3A0319A02BCE
:10077000043A0319A92B013A0319A32B1E3A0319B2
:10078000A62B58303022A30803199C2BC229B6008F
:10079000BA010310FD303707031CEE2BB901F0300E
:1007A0003705031DD62B0430B900B70EB80103106E
:1007B000B90AB70D031CD82BB70C3708360203183B
:1007C000B600B80DB90BDC2BBA1FE82BB809B80A74
:1007D0003808BA1F0800B609B60A0800B601B70CF7
:1007E000B70C0318B60C3608B800B60DE42B563417
:1007F00030342E3430342E34373400340034003466
:00000001FF
