:10000000830100308A0015288C0003088301B300A7
:1000100083128B1C102801089000810130148B1072
:10002000330883008C0E0C0E090030308400303011
:100030002A200D30840022302A200330B200F7300D
:10004000B100223084002B302E2083018C2B04063B
:100050008001840A0406031D27280034AB003820E1
:100060008000840A04082B06031D2F280034B100E9
:10007000B21B412832088A003108B10A0319B20ABA
:1000800082008313321883173108B10A84000008F4
:02009000080066
:10029200A0000138A100A10B4C298312080083128F
:1002A2000514831605108514B014831208008316F2
:1002B2008610061532308312492183168614831262
:1002C2000800AB0000302C182B070310AB0D0310F5
:1002D200AC0CAC08031D6429080083128610831637
:1002E20086101430831249217B2183168614143020
:1002F200831249291430831249218316061564306A
:100302008312492183160611643083124929980009
:100312009901FA3083129521990A04301902031CBB
:100322008A29980B892908009800640004309900F2
:10033200FB309A009A0B9B29990B9929980B9629C5
:10034200831208001030920012309B009C019C0A1C
:10035200A0308312BC220E3098009901990AA03075
:10036200862A9800BA2918088400000883125222AB
:10037200980A180884008008031DB4298312080013
:10038200920193019401110895000F0896000D083F
:100392008038970012309B0006309C00A030BC2AA7
:1003A20083168614061583120611861032304921EF
:1003B2008316861083128610323049218316061165
:1003C2006430831249299A000F398E000A30AC003A
:1003D2001A0E0F3962219A008E07103092000E0811
:1003E200930012309B0002309C00A030BC2A9C017A
:0E03F2008312861006116430492108309B00EA
:1004000003109C0D8316861483120D220038031DE1
:100410009C0A9B0B002A1C0808009D0114308312C3
:10042000492183160615323083124921861C1A2A67
:100430009D019D0A323049218316061164308312D2
:1004400049211D0808000230920012309B009C01D7
:100450009C0AA0308312BC2212309800033099000D
:10046000A03086221208910013088F0014083F392B
:100470008D005B2B831286100611831606118614DD
:100480000615323083124921861C482A00300800A4
:1004900032304921831606116430831249216430B9
:1004A000492101349E000B309D008312B01C502165
:1004B000831205100C309D0041309C009C0B5E2A7D
:1004C00083121E1805141E1C051003149E0C9D0B90
:1004D0005C2A831208008312B01C502183128518F5
:1004E0006F2A22309E009E0B732A85186E2A0830D0
:1004F0009C009D0141309E009E0B7C2A03108518B4
:1005000003149D0C9C0B7A2A1D0808009A00831284
:10051000D1211A080138A1223A220038031D9C2A51
:1005200058210034F821AB00180884002B08800003
:10053000980A9908031D6E219903190F922A5821D0
:1005400001349E0083128610061164304921083060
:100550009F009E1BAF2A861083168610B12A831631
:10056000861403109E0D83127B219F0BA92A8316EC
:1005700086140130831208009D008312D1211D08CA
:10058000FE39A1223A220038031DD32A5821003413
:100590001B0884000008A1223A220038031DD22A39
:1005A000582100349B0A9C031C0FC82A582101348F
:1005B0009A0183126B229B00522230301B02031CD3
:1005C000ED2A3A301B020318ED2A1B08D03E9A0090
:1005D0009A0EF0309A05F0309A056B229B00522259
:1005E00030301B02031CFE2A3A301B020318FE2A7D
:1005F000D0309B070F309B051B089A041A0808008F
:10060000990065301902031C132B6430AC001908E3
:10061000C7239800303E831252226430AC00180881
:1006200062219902162B3030831252220B301902AC
:10063000031C282B0A30AC001908C723980019089E
:10064000303E52220A30AC001808622199022A2B4F
:10065000303052221908303E522A9801562B6B2214
:1006600099005222442BD8228D00562BD8228F007D
:10067000562BD8229100562BD8229900E421562BD4
:10068000C1219801980A562B1908453A0319402BA5
:100690000D3A0319332B043A03193C2B013A031981
:1006A000362B1E3A0319392B5830522298088312E0
:1006B000031D08002F2B0D08F0399800980E0F30FD
:1006C00098051808303EA2000D080F399800303EFA
:1006D0008312A3003A30A4000F08F0399800980E56
:1006E0000F3098051808303EA5000F080F39980004
:1006F000303EA6003A30A7001108F0399800980E55
:100700000F3098051808303EA80011080F399800DE
:10071000303EA900AA0108007F3083168100FF3017
:10072000850086006430831295215021D121582103
:10073000A3212230B2212D30522223222230B22195
:100740002D3052220E0800230D3052220A30522240
:10075000051D2D238B010B168B1764003010301CE8
:10076000AF2B30146400301CB32B30100E08100275
:100770000318B22B831223222230B2212C305222B2
:10078000100800230D3052220A305222B22BAB0047
:10079000AF010310FD302C07031CEE2BAE01F0302F
:1007A0002C05031DD62B0430AE00AC0EAD0103109A
:1007B000AE0AAC0D031CD82BAC0C2C082B02031872
:1007C000AB00AD0DAE0BDC2BAF1FE82BAD09AD0AB6
:1007D0002D08AF1F0800AB09AB0A0800AB01AC0C39
:1007E000AC0C0318AB0C2B08AD00AB0DE42B56344E
:1007F00030342E3430342E3433340034003400346A
:00000001FF
