:10000000830100308A0015288C0003088301BC009E
:1000100083128B1C10280108900081013B148B1067
:100020003C0883008C0E0C0E0900393084003930F6
:100030002A200D3084002B302A200330BA00F730FC
:10004000B9002B30840034302E208301002B0406AD
:100050008001840A0406031D27280034B4003820D8
:100060008000840A04083406031D2F280034B900D8
:10007000BA1B41283A088A003908B90A0319BA0A92
:10008000820083133A1883173908B90A84000008DC
:02009000080066
:10026400A9000138AA00AA0B3529831208008312B9
:100274000514831605108514BB148312080001307D
:100284008312890083160814831208088E0008005C
:100294008316061186143230831232218316061512
:1002A40083120800B4000030351834070310B40D6D
:1002B4000310B50CB508031D562908001430831229
:1002C40032218316861464308312322183168610F9
:1002D40064308312322983120611831606111430F6
:1002E40083123221602183160615143083123229B9
:1002F400A100A201FA3083128721A20A043022024B
:10030400031C7C29A10B7B290800A1006400043094
:10031400A200FB30A300A30B8D29A20B8B29A10BF8
:10032400882983120800A3009D292308840000085B
:1003340083123522A30A230884008008031D972909
:1003440083120800920193019401110895000F088B
:1003540096000D08803897001230A3000630A400E0
:10036400A0309F2A83160615861483128610061160
:1003740032303221831606118312061132303221B3
:1003840083168610643083123229A7018312061162
:100394008610643032210830A6000310A70D83169E
:1003A4000615831207220038031DA70AA60BCF29BE
:1003B400270808000D30831235220A3035224121E6
:1003C4002B3095212D303522F121183095212D30F7
:1003D40035220E082C230D3035220A30352A92019D
:1003E4001230A300A401A40AA03083129F22123069
:0C03F400A3000530A400A030692214080A
:10040000910015088F0016083F398D005C2BA8015C
:100410001430831232218316861432308312322133
:10042000061D142AA801A80A32303221831686102C
:1004300064308312322128080800831206118610C6
:100440008316861006158614323083123221061D5B
:100450002B2A003008003230322183168610643097
:1004600083123221643032210134A7000B30A60000
:100470008312BB1C3921831205100C30A6004130B9
:10048000A500A50B412A831227180514271C051067
:100490000314A70CA60B3F2A83120800A6008312A0
:1004A00006118610643032210830A700A61B5C2A92
:1004B0000611831606115E2A831606150310A60D73
:1004C00083126021A70B562A83160615013083126A
:1004D0000800A5008312B421250801384E221D22F0
:1004E0000038031D7F2A4A210034C721B4002308A5
:1004F000840034088000A30AA408031D6D21A4030E
:10050000240F752A4A2101348312BB1C392183121E
:100510008518882A2230A700A70B8C2A8518872ADD
:100520000830A500A6014130A700A70B952A0310AB
:1005300085180314A60CA50B932A26080800A5000D
:100540008312B4212508FE394E221D220038031DD6
:10055000B62A4A2100342308840000084E221D22B6
:100560000038031DB52A4A210034A30AA403240F2E
:10057000AB2A4A210134A3000F398E000A30B5009E
:10058000230E0F395421A3008E0783168818C62A1C
:100590000130831289000E0888008B13831608151A
:1005A00055308900AA308900881408118312080088
:1005B000A30183128422A400352230302402031CBC
:1005C000ED2A3A3024020318ED2A2408D03EA30075
:1005D000A30EF030A305F030A3058422A400352239
:1005E00030302402031CFE2A3A3024020318FE2A6B
:1005F000D030A4070F30A4052408A3042308080062
:100600007F3083168100FF308500860064308312BE
:1006100087213921B4214A21DC21051D8D238B013D
:100620000B168B1764003B103B1C142B3B1464000F
:100630003B1C182B3B100E0810020318172B8312BB
:10064000F121183095212C30352210082C230D3043
:1006500035220A303522172BA30065302302031CF4
:10066000402B6430B5002308C723A400303E83121A
:1006700035226430B50024085421A400A302432B82
:100680003030831235220B302302031C572B0A30E3
:10069000B5002308C723A400303E35220310240DE3
:1006A000A407A4070310A40D2408A302592B30307B
:1006B00035222308303E352A0D08F039A300A30E59
:1006C0000F30A3052308303E98000D080F39A30012
:1006D000303E831299003A309A000F08F039A30097
:1006E000A30E0F30A3052308303E9B000F080F39DF
:1006F000A300303E9C003A309D001108F039A30061
:10070000A30E0F30A3052308303E9E0011080F39B9
:10071000A300303E9F00A0010800A10153308312C6
:10072000352245303522543035225530352250306F
:1007300035223A303522C32B8422A2003522B12B38
:10074000D8228D00C32BD8228F00C32BD822910032
:10075000C32BD822A200BB22C32BA421A101A10A32
:10076000C32B2208453A0319AD2B0D3A0319A02BD0
:10077000043A0319A92B013A0319A32B1E3A0319B2
:10078000A62B58303522A10803199C2BDC29B40074
:10079000B8010310FD303507031CEE2BB701F03014
:1007A0003505031DD62B0430B700B50EB601031076
:1007B000B70AB50D031CD82BB50C35083402031845
:1007C000B400B60DB70BDC2BB81FE82BB609B60A80
:1007D0003608B81F0800B409B40A0800B401B50C03
:1007E000B50C0318B40C3408B600B40DE42B563421
:1007F00030342E3430342E34353400340034003468
:00000001FF
