:020000040000FA
:100000008316870183124D3092008316323092009E
:100010008312A0012008F7208C1C0C2887008C106C
:10002000A00A03113B3020020319A0012008F72089
:020030000C289A
:0201EE00A1006E
:1001F00001308A0000300310210703188A0A8200A8
:100200008134FF34083408340834FF3481347834BE
:1002100094349434943458340034FF348034FF34AC
:100220008034783484348434843478340034013431
:1002300003343C34C0343C3402343C34C0343C34A9
:100240000334793484348434843478348034FC3412
:10025000883404340034FF34803478348434843473
:10026000FF348134003400344734AD344734003433
:080270000034003400340034B6
:02400E00D433A9
:00000001FF
