:0A000000A001A101A201A301942FA9
:100F28008316031387018501013083128700A0010E
:100F3800A101273021021130031920020318A82F1C
:100F4800A00A0319A10A9D2F02308700A001A10160
:100F5800273021021130031920020318B72FA00AE5
:100F68000319A10AAC2F04308700A001A101273082
:100F780021021130031920020318C62FA00A0319F1
:100F8800A10ABB2F08308700A001A1012730210248
:100F98001130031920020318D52FA00A0319A10A3A
:100FA800CA2FA001A10100302102C9300319200273
:100FB80001300318992F8500A201A30100302302F4
:100FC8009730031922020318ED2FA20A0319A30A66
:100FD800E22F02308500A201A301003023029730DE
:100FE800031922020318FC2FA20A0319A30AF12FDE
:080FF800A00A0319A10AD72F7A
:02400E00D400DC
:00000001FF
