:020000040000FA
:1000000025000504090C0600000C2600C00C0200A7
:1000100067040C0A090A0F059C09D509D5099C0932
:10002000D509D5095A09D509D5093409D509D509FC
:10003000D509D509D509D509D5097B09D509D5092A
:10004000D509D509D509D509D509D5090C0A0F0651
:100050002A0A090AD509D509D509D5090606090AC2
:1000600066070C0A2604320A6D002D054D0C2C0083
:10007000120C2B00C309CC09020C2B00C309110C74
:100080002C000B0C2B00C309210C2C00CC09140CE8
:100090002C00BF09CC09CC09C309CC09C309CC0980
:1000A000C309CC09C309CC09C309CC09C309CC09CC
:1000B000C30900086D002D054D0C2C00120C2B00FF
:1000C000C309CC09110C2C000B0C2B00C309CC0963
:1000D000C309CC09C309CC09C309CC09C309CC099C
:1000E000C309CC09C309CC09C309CC09C309CC098C
:1000F000C309CC0900086D004D05210C2C002B0014
:10010000CC09C309CC09C309CC09BF09CC09C3096F
:10011000CC09C309CC09C309CC09C309CC09C3095B
:10012000CC09C309CC09CC09C309CC09C309C3094B
:10013000CC09C309CC0900086D008D055A0C2B00B1
:10014000C309180C2C00180C2B00CC09BF09CC09D2
:10015000C309CC09BF09CC09C309CC09C309C30928
:10016000CC09C309CC09C309CC09BF09CC09C3090F
:10017000CC09C309CC09C309CC09C30900080B0287
:10018000CB012800C50A0B0228002D06DD0A4D060A
:100190001B0B8D06510B00080C0228002D06FC0AD3
:1001A0004D06360B8D066A0B00083A0C2A00290012
:1001B000E902D80AEA02D70A000846040000000053
:1001C000000000000000000000000000000000002F
:1001D00000000000000000004605000000000000D4
:1001E000000000000000000000000000000000000F
:1001F0000000E802DD0A00084605000000000000DB
:1002000000000000000000000000000000000000EE
:100210000000000000004605000000000000000093
:1002200000000000000000000000000000000000CE
:10023000E802FC0A0008460400000000000000007C
:1002400000000000000000000000000000000000AE
:100250004605000000000000000000000000000053
:10026000000000000000E8021B0B0008460500002B
:10027000000000000000000000000000000000007E
:100280000000000000004605000000000000000023
:10029000000000000000000000000000E802360B33
:1002A00000084604000000000000000000000000FC
:1002B00000000000000000000000460500000000F3
:1002C0000000000000000000000000000000E80244
:1002D000510B00084605000000000000000000006F
:1002E00000000000000000000000000046050000C3
:1002F00000000000000000000000000000000000FE
:06030000E8026A0B000890
:021FFE00EB0FE7
:00000001FF
