:0600000000308A006E28AA
:10000800F00003088301B0000408B1008B138316C5
:10001800031322080319A303A203220A0319230ABC
:10002800031D6228133083122202A20A0318A201B8
:08003800220B2228C0308605CE
:1000400001303E2808302202031829280310870DAA
:1000500042282208083A031D302887010616422844
:100060000B30220203183728303086064228220837
:100070000B3A031D4028C030860580308700422897
:100080000310870C0A30220222080318123CA30036
:100090002307C03E8400831300088316A200840A4D
:1000A0000008A300831223082307AC3E84008313B7
:1000B000000892000314230DAC3E84008313000853
:1000C00083169200C030831286068C108B1731087D
:1000D000840030088300F00E700E09002030840088
:1000E00030307A20A0308400D4307A207F28040673
:1000F0008001840A0406031D7728640000347030F0
:1001000083160313850086018701803083128600E1
:10011000073003179E009F01813003139F0020309A
:1001200083169F000C130B178C1483128C108B17E3
:10013000FF30831692008312920075308316AC0054
:100140008B30AD003D30AE00EC30AF001E30B00063
:100150006B30B1001E30B2006130B3003530B400F6
:10016000C930B5005630B6001D30B7006530B80054
:100170005930B9002530BA00D230BB007C30BC0009
:10018000EE30BD006C30BE00F630BF00C6288301E3
:10019000AF002F089F009F149F18CC282F088400C1
:1001A000831383161E0880008312AF0A2F08840071
:0601B0001E08800008009B
:02400E0044006C
:00000001FF
